{
  "_format": "hh-sol-artifact-1",
  "contractName": "Mailbox",
  "sourceName": "contracts/Mailbox.sol",
  "abi": [
    {
      "inputs": [
        {
          "internalType": "bytes",
          "name": "_key",
          "type": "bytes"
        }
      ],
      "stateMutability": "nonpayable",
      "type": "constructor"
    },
    {
      "inputs": [],
      "name": "clearInbox",
      "outputs": [],
      "stateMutability": "nonpayable",
      "type": "function"
    },
    {
      "inputs": [
        {
          "internalType": "uint256",
          "name": "index",
          "type": "uint256"
        }
      ],
      "name": "clearMessage",
      "outputs": [],
      "stateMutability": "nonpayable",
      "type": "function"
    },
    {
      "inputs": [],
      "name": "getInboxCount",
      "outputs": [
        {
          "internalType": "uint256",
          "name": "",
          "type": "uint256"
        }
      ],
      "stateMutability": "view",
      "type": "function"
    },
    {
      "inputs": [
        {
          "internalType": "uint256",
          "name": "index",
          "type": "uint256"
        }
      ],
      "name": "getMail",
      "outputs": [
        {
          "components": [
            {
              "internalType": "address",
              "name": "sender",
              "type": "address"
            },
            {
              "internalType": "uint256",
              "name": "timestamp",
              "type": "uint256"
            },
            {
              "internalType": "bytes",
              "name": "message",
              "type": "bytes"
            }
          ],
          "internalType": "struct Mailbox.Mail",
          "name": "",
          "type": "tuple"
        }
      ],
      "stateMutability": "view",
      "type": "function"
    },
    {
      "inputs": [],
      "name": "key",
      "outputs": [
        {
          "internalType": "bytes",
          "name": "",
          "type": "bytes"
        }
      ],
      "stateMutability": "view",
      "type": "function"
    },
    {
      "inputs": [],
      "name": "owner",
      "outputs": [
        {
          "internalType": "address",
          "name": "",
          "type": "address"
        }
      ],
      "stateMutability": "view",
      "type": "function"
    },
    {
      "inputs": [
        {
          "internalType": "bytes",
          "name": "message",
          "type": "bytes"
        }
      ],
      "name": "sendMessage",
      "outputs": [],
      "stateMutability": "nonpayable",
      "type": "function"
    },
    {
      "inputs": [
        {
          "internalType": "bytes",
          "name": "_key",
          "type": "bytes"
        }
      ],
      "name": "updateKey",
      "outputs": [],
      "stateMutability": "nonpayable",
      "type": "function"
    }
  ],
  "bytecode": "0x60806040523480156200001157600080fd5b506040516200168538038062001685833981810160405281019062000037919062000223565b336000806101000a81548173ffffffffffffffffffffffffffffffffffffffff021916908373ffffffffffffffffffffffffffffffffffffffff1602179055508060019081620000889190620004bf565b5050620005a6565b6000604051905090565b600080fd5b600080fd5b600080fd5b600080fd5b6000601f19601f8301169050919050565b7f4e487b7100000000000000000000000000000000000000000000000000000000600052604160045260246000fd5b620000f982620000ae565b810181811067ffffffffffffffff821117156200011b576200011a620000bf565b5b80604052505050565b60006200013062000090565b90506200013e8282620000ee565b919050565b600067ffffffffffffffff821115620001615762000160620000bf565b5b6200016c82620000ae565b9050602081019050919050565b60005b83811015620001995780820151818401526020810190506200017c565b60008484015250505050565b6000620001bc620001b68462000143565b62000124565b905082815260208101848484011115620001db57620001da620000a9565b5b620001e884828562000179565b509392505050565b600082601f830112620002085762000207620000a4565b5b81516200021a848260208601620001a5565b91505092915050565b6000602082840312156200023c576200023b6200009a565b5b600082015167ffffffffffffffff8111156200025d576200025c6200009f565b5b6200026b84828501620001f0565b91505092915050565b600081519050919050565b7f4e487b7100000000000000000000000000000000000000000000000000000000600052602260045260246000fd5b60006002820490506001821680620002c757607f821691505b602082108103620002dd57620002dc6200027f565b5b50919050565b60008190508160005260206000209050919050565b60006020601f8301049050919050565b600082821b905092915050565b600060088302620003477fffffffffffffffffffffffffffffffffffffffffffffffffffffffffffffffff8262000308565b62000353868362000308565b95508019841693508086168417925050509392505050565b6000819050919050565b6000819050919050565b6000620003a06200039a62000394846200036b565b62000375565b6200036b565b9050919050565b6000819050919050565b620003bc836200037f565b620003d4620003cb82620003a7565b84845462000315565b825550505050565b600090565b620003eb620003dc565b620003f8818484620003b1565b505050565b5b81811015620004205762000414600082620003e1565b600181019050620003fe565b5050565b601f8211156200046f576200043981620002e3565b6200044484620002f8565b8101602085101562000454578190505b6200046c6200046385620002f8565b830182620003fd565b50505b505050565b600082821c905092915050565b6000620004946000198460080262000474565b1980831691505092915050565b6000620004af838362000481565b9150826002028217905092915050565b620004ca8262000274565b67ffffffffffffffff811115620004e657620004e5620000bf565b5b620004f28254620002ae565b620004ff82828562000424565b600060209050601f83116001811462000537576000841562000522578287015190505b6200052e8582620004a1565b8655506200059e565b601f1984166200054786620002e3565b60005b8281101562000571578489015182556001820191506020850194506020810190506200054a565b868310156200059157848901516200058d601f89168262000481565b8355505b6001600288020188555050505b505050505050565b6110cf80620005b66000396000f3fe608060405234801561001057600080fd5b50600436106100885760003560e01c80638da5cb5b1161005b5780638da5cb5b146100ef578063a46b56f01461010d578063dcc5330514610129578063e6eb68671461015957610088565b8063056e7e391461008d5780633943380c146100975780638128d72a146100b557806382646a58146100d3575b600080fd5b610095610175565b005b61009f610213565b6040516100ac91906108d2565b60405180910390f35b6100bd6102a1565b6040516100ca919061090d565b60405180910390f35b6100ed60048036038101906100e89190610997565b6102ae565b005b6100f76103bb565b6040516101049190610a25565b60405180910390f35b61012760048036038101906101229190610a6c565b6103df565b005b610143600480360381019061013e9190610a6c565b61051b565b6040516101509190610b51565b60405180910390f35b610173600480360381019061016e9190610997565b610690565b005b60008054906101000a900473ffffffffffffffffffffffffffffffffffffffff1673ffffffffffffffffffffffffffffffffffffffff163373ffffffffffffffffffffffffffffffffffffffff1614610203576040517f08c379a00000000000000000000000000000000000000000000000000000000081526004016101fa90610bf6565b60405180910390fd5b600260006102119190610734565b565b6001805461022090610c45565b80601f016020809104026020016040519081016040528092919081815260200182805461024c90610c45565b80156102995780601f1061026e57610100808354040283529160200191610299565b820191906000526020600020905b81548152906001019060200180831161027c57829003601f168201915b505050505081565b6000600280549050905090565b600260405180606001604052803373ffffffffffffffffffffffffffffffffffffffff16815260200142815260200184848080601f016020809104026020016040519081016040528093929190818152602001838380828437600081840152601f19601f82011690508083019250505050505050815250908060018154018082558091505060019003906000526020600020906003020160009091909190915060008201518160000160006101000a81548173ffffffffffffffffffffffffffffffffffffffff021916908373ffffffffffffffffffffffffffffffffffffffff1602179055506020820151816001015560408201518160020190816103b49190610e51565b5050505050565b60008054906101000a900473ffffffffffffffffffffffffffffffffffffffff1681565b60008054906101000a900473ffffffffffffffffffffffffffffffffffffffff1673ffffffffffffffffffffffffffffffffffffffff163373ffffffffffffffffffffffffffffffffffffffff161461046d576040517f08c379a000000000000000000000000000000000000000000000000000000000815260040161046490610bf6565b60405180910390fd5b60028054905081106104b4576040517f08c379a00000000000000000000000000000000000000000000000000000000081526004016104ab90610f6f565b60405180910390fd5b600281815481106104c8576104c7610f8f565b5b9060005260206000209060030201600080820160006101000a81549073ffffffffffffffffffffffffffffffffffffffff021916905560018201600090556002820160006105169190610758565b505050565b610523610798565b600280549050821061056a576040517f08c379a000000000000000000000000000000000000000000000000000000000815260040161056190610f6f565b60405180910390fd5b6002828154811061057e5761057d610f8f565b5b90600052602060002090600302016040518060600160405290816000820160009054906101000a900473ffffffffffffffffffffffffffffffffffffffff1673ffffffffffffffffffffffffffffffffffffffff1673ffffffffffffffffffffffffffffffffffffffff1681526020016001820154815260200160028201805461060790610c45565b80601f016020809104026020016040519081016040528092919081815260200182805461063390610c45565b80156106805780601f1061065557610100808354040283529160200191610680565b820191906000526020600020905b81548152906001019060200180831161066357829003601f168201915b5050505050815250509050919050565b60008054906101000a900473ffffffffffffffffffffffffffffffffffffffff1673ffffffffffffffffffffffffffffffffffffffff163373ffffffffffffffffffffffffffffffffffffffff161461071e576040517f08c379a000000000000000000000000000000000000000000000000000000000815260040161071590610bf6565b60405180910390fd5b81816001918261072f929190610fc9565b505050565b508054600082556003029060005260206000209081019061075591906107cf565b50565b50805461076490610c45565b6000825580601f106107765750610795565b601f0160209004906000526020600020908101906107949190610825565b5b50565b6040518060600160405280600073ffffffffffffffffffffffffffffffffffffffff16815260200160008152602001606081525090565b5b8082111561082157600080820160006101000a81549073ffffffffffffffffffffffffffffffffffffffff021916905560018201600090556002820160006108189190610758565b506003016107d0565b5090565b5b8082111561083e576000816000905550600101610826565b5090565b600081519050919050565b600082825260208201905092915050565b60005b8381101561087c578082015181840152602081019050610861565b60008484015250505050565b6000601f19601f8301169050919050565b60006108a482610842565b6108ae818561084d565b93506108be81856020860161085e565b6108c781610888565b840191505092915050565b600060208201905081810360008301526108ec8184610899565b905092915050565b6000819050919050565b610907816108f4565b82525050565b600060208201905061092260008301846108fe565b92915050565b600080fd5b600080fd5b600080fd5b600080fd5b600080fd5b60008083601f84011261095757610956610932565b5b8235905067ffffffffffffffff81111561097457610973610937565b5b6020830191508360018202830111156109905761098f61093c565b5b9250929050565b600080602083850312156109ae576109ad610928565b5b600083013567ffffffffffffffff8111156109cc576109cb61092d565b5b6109d885828601610941565b92509250509250929050565b600073ffffffffffffffffffffffffffffffffffffffff82169050919050565b6000610a0f826109e4565b9050919050565b610a1f81610a04565b82525050565b6000602082019050610a3a6000830184610a16565b92915050565b610a49816108f4565b8114610a5457600080fd5b50565b600081359050610a6681610a40565b92915050565b600060208284031215610a8257610a81610928565b5b6000610a9084828501610a57565b91505092915050565b610aa281610a04565b82525050565b610ab1816108f4565b82525050565b600082825260208201905092915050565b6000610ad382610842565b610add8185610ab7565b9350610aed81856020860161085e565b610af681610888565b840191505092915050565b6000606083016000830151610b196000860182610a99565b506020830151610b2c6020860182610aa8565b5060408301518482036040860152610b448282610ac8565b9150508091505092915050565b60006020820190508181036000830152610b6b8184610b01565b905092915050565b600082825260208201905092915050565b7f4f6e6c79206f776e657220697320616c6c6f77656420746f2063616c6c20746860008201527f69732066756e6374696f6e210000000000000000000000000000000000000000602082015250565b6000610be0602c83610b73565b9150610beb82610b84565b604082019050919050565b60006020820190508181036000830152610c0f81610bd3565b9050919050565b7f4e487b7100000000000000000000000000000000000000000000000000000000600052602260045260246000fd5b60006002820490506001821680610c5d57607f821691505b602082108103610c7057610c6f610c16565b5b50919050565b7f4e487b7100000000000000000000000000000000000000000000000000000000600052604160045260246000fd5b60008190508160005260206000209050919050565b60006020601f8301049050919050565b600082821b905092915050565b600060088302610d077fffffffffffffffffffffffffffffffffffffffffffffffffffffffffffffffff82610cca565b610d118683610cca565b95508019841693508086168417925050509392505050565b6000819050919050565b6000610d4e610d49610d44846108f4565b610d29565b6108f4565b9050919050565b6000819050919050565b610d6883610d33565b610d7c610d7482610d55565b848454610cd7565b825550505050565b600090565b610d91610d84565b610d9c818484610d5f565b505050565b5b81811015610dc057610db5600082610d89565b600181019050610da2565b5050565b601f821115610e0557610dd681610ca5565b610ddf84610cba565b81016020851015610dee578190505b610e02610dfa85610cba565b830182610da1565b50505b505050565b600082821c905092915050565b6000610e2860001984600802610e0a565b1980831691505092915050565b6000610e418383610e17565b9150826002028217905092915050565b610e5a82610842565b67ffffffffffffffff811115610e7357610e72610c76565b5b610e7d8254610c45565b610e88828285610dc4565b600060209050601f831160018114610ebb5760008415610ea9578287015190505b610eb38582610e35565b865550610f1b565b601f198416610ec986610ca5565b60005b82811015610ef157848901518255600182019150602085019450602081019050610ecc565b86831015610f0e5784890151610f0a601f891682610e17565b8355505b6001600288020188555050505b505050505050565b7f4e6f206d61696c20617420696e64657800000000000000000000000000000000600082015250565b6000610f59601083610b73565b9150610f6482610f23565b602082019050919050565b60006020820190508181036000830152610f8881610f4c565b9050919050565b7f4e487b7100000000000000000000000000000000000000000000000000000000600052603260045260246000fd5b600082905092915050565b610fd38383610fbe565b67ffffffffffffffff811115610fec57610feb610c76565b5b610ff68254610c45565b611001828285610dc4565b6000601f831160018114611030576000841561101e578287013590505b6110288582610e35565b865550611090565b601f19841661103e86610ca5565b60005b8281101561106657848901358255600182019150602085019450602081019050611041565b86831015611083578489013561107f601f891682610e17565b8355505b6001600288020188555050505b5050505050505056fea2646970667358221220d2928c7d5e4dd07f8474f3e4b3c70c749938a7fdd03553260551bf4203ea31a664736f6c63430008140033",
  "linkReferences": {},
  "deployedLinkReferences": {}
}