{
  "_format": "hh-sol-artifact-1",
  "contractName": "Mailbox",
  "sourceName": "contracts/Mailbox.sol",
  "abi": [
    {
      "inputs": [
        {
          "internalType": "bytes",
          "name": "_key",
          "type": "bytes"
        }
      ],
      "stateMutability": "nonpayable",
      "type": "constructor"
    },
    {
      "inputs": [],
      "name": "clearInbox",
      "outputs": [],
      "stateMutability": "nonpayable",
      "type": "function"
    },
    {
      "inputs": [
        {
          "internalType": "uint256",
          "name": "index",
          "type": "uint256"
        }
      ],
      "name": "clearMessage",
      "outputs": [],
      "stateMutability": "nonpayable",
      "type": "function"
    },
    {
      "inputs": [],
      "name": "getInboxCount",
      "outputs": [
        {
          "internalType": "uint256",
          "name": "",
          "type": "uint256"
        }
      ],
      "stateMutability": "view",
      "type": "function"
    },
    {
      "inputs": [
        {
          "internalType": "uint256",
          "name": "index",
          "type": "uint256"
        }
      ],
      "name": "getMail",
      "outputs": [
        {
          "components": [
            {
              "internalType": "address",
              "name": "sender",
              "type": "address"
            },
            {
              "internalType": "uint256",
              "name": "timestamp",
              "type": "uint256"
            },
            {
              "internalType": "bytes",
              "name": "message",
              "type": "bytes"
            },
            {
              "internalType": "bytes",
              "name": "signature",
              "type": "bytes"
            }
          ],
          "internalType": "struct Mailbox.Mail",
          "name": "",
          "type": "tuple"
        }
      ],
      "stateMutability": "view",
      "type": "function"
    },
    {
      "inputs": [],
      "name": "key",
      "outputs": [
        {
          "internalType": "bytes",
          "name": "",
          "type": "bytes"
        }
      ],
      "stateMutability": "view",
      "type": "function"
    },
    {
      "inputs": [],
      "name": "owner",
      "outputs": [
        {
          "internalType": "address",
          "name": "",
          "type": "address"
        }
      ],
      "stateMutability": "view",
      "type": "function"
    },
    {
      "inputs": [
        {
          "internalType": "bytes",
          "name": "message",
          "type": "bytes"
        },
        {
          "internalType": "bytes",
          "name": "signature",
          "type": "bytes"
        }
      ],
      "name": "sendMessage",
      "outputs": [],
      "stateMutability": "nonpayable",
      "type": "function"
    },
    {
      "inputs": [
        {
          "internalType": "bytes",
          "name": "_key",
          "type": "bytes"
        }
      ],
      "name": "updateKey",
      "outputs": [],
      "stateMutability": "nonpayable",
      "type": "function"
    }
  ],
  "bytecode": "0x60a06040523480156200001157600080fd5b506040516200187938038062001879833981810160405281019062000037919062000217565b3373ffffffffffffffffffffffffffffffffffffffff1660808173ffffffffffffffffffffffffffffffffffffffff168152505080600090816200007c9190620004b3565b50506200059a565b6000604051905090565b600080fd5b600080fd5b600080fd5b600080fd5b6000601f19601f8301169050919050565b7f4e487b7100000000000000000000000000000000000000000000000000000000600052604160045260246000fd5b620000ed82620000a2565b810181811067ffffffffffffffff821117156200010f576200010e620000b3565b5b80604052505050565b60006200012462000084565b9050620001328282620000e2565b919050565b600067ffffffffffffffff821115620001555762000154620000b3565b5b6200016082620000a2565b9050602081019050919050565b60005b838110156200018d57808201518184015260208101905062000170565b60008484015250505050565b6000620001b0620001aa8462000137565b62000118565b905082815260208101848484011115620001cf57620001ce6200009d565b5b620001dc8482856200016d565b509392505050565b600082601f830112620001fc57620001fb62000098565b5b81516200020e84826020860162000199565b91505092915050565b60006020828403121562000230576200022f6200008e565b5b600082015167ffffffffffffffff81111562000251576200025062000093565b5b6200025f84828501620001e4565b91505092915050565b600081519050919050565b7f4e487b7100000000000000000000000000000000000000000000000000000000600052602260045260246000fd5b60006002820490506001821680620002bb57607f821691505b602082108103620002d157620002d062000273565b5b50919050565b60008190508160005260206000209050919050565b60006020601f8301049050919050565b600082821b905092915050565b6000600883026200033b7fffffffffffffffffffffffffffffffffffffffffffffffffffffffffffffffff82620002fc565b620003478683620002fc565b95508019841693508086168417925050509392505050565b6000819050919050565b6000819050919050565b6000620003946200038e62000388846200035f565b62000369565b6200035f565b9050919050565b6000819050919050565b620003b08362000373565b620003c8620003bf826200039b565b84845462000309565b825550505050565b600090565b620003df620003d0565b620003ec818484620003a5565b505050565b5b81811015620004145762000408600082620003d5565b600181019050620003f2565b5050565b601f82111562000463576200042d81620002d7565b6200043884620002ec565b8101602085101562000448578190505b620004606200045785620002ec565b830182620003f1565b50505b505050565b600082821c905092915050565b6000620004886000198460080262000468565b1980831691505092915050565b6000620004a3838362000475565b9150826002028217905092915050565b620004be8262000268565b67ffffffffffffffff811115620004da57620004d9620000b3565b5b620004e68254620002a2565b620004f382828562000418565b600060209050601f8311600181146200052b576000841562000516578287015190505b62000522858262000495565b86555062000592565b601f1984166200053b86620002d7565b60005b8281101562000565578489015182556001820191506020850194506020810190506200053e565b8683101562000585578489015162000581601f89168262000475565b8355505b6001600288020188555050505b505050505050565b6080516112ae620005cb600039600081816101770152818161041f01528181610443015261079601526112ae6000f3fe608060405234801561001057600080fd5b50600436106100885760003560e01c80638da5cb5b1161005b5780638da5cb5b146100ef578063a46b56f01461010d578063dcc5330514610129578063e6eb68671461015957610088565b8063056e7e391461008d5780633943380c1461009757806348e6fa23146100b55780638128d72a146100d1575b600080fd5b610095610175565b005b61009f610213565b6040516100ac91906109ea565b60405180910390f35b6100cf60048036038101906100ca9190610a85565b6102a1565b005b6100d9610410565b6040516100e69190610b1f565b60405180910390f35b6100f761041d565b6040516101049190610b7b565b60405180910390f35b61012760048036038101906101229190610bc2565b610441565b005b610143600480360381019061013e9190610bc2565b61058d565b6040516101509190610cc1565b60405180910390f35b610173600480360381019061016e9190610e13565b610794565b005b7f000000000000000000000000000000000000000000000000000000000000000073ffffffffffffffffffffffffffffffffffffffff163373ffffffffffffffffffffffffffffffffffffffff1614610203576040517f08c379a00000000000000000000000000000000000000000000000000000000081526004016101fa90610edf565b60405180910390fd5b600160006102119190610835565b565b6000805461022090610f2e565b80601f016020809104026020016040519081016040528092919081815260200182805461024c90610f2e565b80156102995780601f1061026e57610100808354040283529160200191610299565b820191906000526020600020905b81548152906001019060200180831161027c57829003601f168201915b505050505081565b600160405180608001604052803373ffffffffffffffffffffffffffffffffffffffff16815260200142815260200186868080601f016020809104026020016040519081016040528093929190818152602001838380828437600081840152601f19601f82011690508083019250505050505050815260200184848080601f016020809104026020016040519081016040528093929190818152602001838380828437600081840152601f19601f82011690508083019250505050505050815250908060018154018082558091505060019003906000526020600020906004020160009091909190915060008201518160000160006101000a81548173ffffffffffffffffffffffffffffffffffffffff021916908373ffffffffffffffffffffffffffffffffffffffff1602179055506020820151816001015560408201518160020190816103f1919061110b565b506060820151816003019081610407919061110b565b50505050505050565b6000600180549050905090565b7f000000000000000000000000000000000000000000000000000000000000000081565b7f000000000000000000000000000000000000000000000000000000000000000073ffffffffffffffffffffffffffffffffffffffff163373ffffffffffffffffffffffffffffffffffffffff16146104cf576040517f08c379a00000000000000000000000000000000000000000000000000000000081526004016104c690610edf565b60405180910390fd5b6001805490508110610516576040517f08c379a000000000000000000000000000000000000000000000000000000000815260040161050d90611229565b60405180910390fd5b6001818154811061052a57610529611249565b5b9060005260206000209060040201600080820160006101000a81549073ffffffffffffffffffffffffffffffffffffffff021916905560018201600090556002820160006105789190610859565b6003820160006105889190610859565b505050565b610595610899565b60018054905082106105dc576040517f08c379a00000000000000000000000000000000000000000000000000000000081526004016105d390611229565b60405180910390fd5b600182815481106105f0576105ef611249565b5b90600052602060002090600402016040518060800160405290816000820160009054906101000a900473ffffffffffffffffffffffffffffffffffffffff1673ffffffffffffffffffffffffffffffffffffffff1673ffffffffffffffffffffffffffffffffffffffff1681526020016001820154815260200160028201805461067990610f2e565b80601f01602080910402602001604051908101604052809291908181526020018280546106a590610f2e565b80156106f25780601f106106c7576101008083540402835291602001916106f2565b820191906000526020600020905b8154815290600101906020018083116106d557829003601f168201915b5050505050815260200160038201805461070b90610f2e565b80601f016020809104026020016040519081016040528092919081815260200182805461073790610f2e565b80156107845780601f1061075957610100808354040283529160200191610784565b820191906000526020600020905b81548152906001019060200180831161076757829003601f168201915b5050505050815250509050919050565b7f000000000000000000000000000000000000000000000000000000000000000073ffffffffffffffffffffffffffffffffffffffff163373ffffffffffffffffffffffffffffffffffffffff1614610822576040517f08c379a000000000000000000000000000000000000000000000000000000000815260040161081990610edf565b60405180910390fd5b8060009081610831919061110b565b5050565b508054600082556004029060005260206000209081019061085691906108d7565b50565b50805461086590610f2e565b6000825580601f106108775750610896565b601f016020900490600052602060002090810190610895919061093d565b5b50565b6040518060800160405280600073ffffffffffffffffffffffffffffffffffffffff1681526020016000815260200160608152602001606081525090565b5b8082111561093957600080820160006101000a81549073ffffffffffffffffffffffffffffffffffffffff021916905560018201600090556002820160006109209190610859565b6003820160006109309190610859565b506004016108d8565b5090565b5b8082111561095657600081600090555060010161093e565b5090565b600081519050919050565b600082825260208201905092915050565b60005b83811015610994578082015181840152602081019050610979565b60008484015250505050565b6000601f19601f8301169050919050565b60006109bc8261095a565b6109c68185610965565b93506109d6818560208601610976565b6109df816109a0565b840191505092915050565b60006020820190508181036000830152610a0481846109b1565b905092915050565b6000604051905090565b600080fd5b600080fd5b600080fd5b600080fd5b600080fd5b60008083601f840112610a4557610a44610a20565b5b8235905067ffffffffffffffff811115610a6257610a61610a25565b5b602083019150836001820283011115610a7e57610a7d610a2a565b5b9250929050565b60008060008060408587031215610a9f57610a9e610a16565b5b600085013567ffffffffffffffff811115610abd57610abc610a1b565b5b610ac987828801610a2f565b9450945050602085013567ffffffffffffffff811115610aec57610aeb610a1b565b5b610af887828801610a2f565b925092505092959194509250565b6000819050919050565b610b1981610b06565b82525050565b6000602082019050610b346000830184610b10565b92915050565b600073ffffffffffffffffffffffffffffffffffffffff82169050919050565b6000610b6582610b3a565b9050919050565b610b7581610b5a565b82525050565b6000602082019050610b906000830184610b6c565b92915050565b610b9f81610b06565b8114610baa57600080fd5b50565b600081359050610bbc81610b96565b92915050565b600060208284031215610bd857610bd7610a16565b5b6000610be684828501610bad565b91505092915050565b610bf881610b5a565b82525050565b610c0781610b06565b82525050565b600082825260208201905092915050565b6000610c298261095a565b610c338185610c0d565b9350610c43818560208601610976565b610c4c816109a0565b840191505092915050565b6000608083016000830151610c6f6000860182610bef565b506020830151610c826020860182610bfe565b5060408301518482036040860152610c9a8282610c1e565b91505060608301518482036060860152610cb48282610c1e565b9150508091505092915050565b60006020820190508181036000830152610cdb8184610c57565b905092915050565b600080fd5b7f4e487b7100000000000000000000000000000000000000000000000000000000600052604160045260246000fd5b610d20826109a0565b810181811067ffffffffffffffff82111715610d3f57610d3e610ce8565b5b80604052505050565b6000610d52610a0c565b9050610d5e8282610d17565b919050565b600067ffffffffffffffff821115610d7e57610d7d610ce8565b5b610d87826109a0565b9050602081019050919050565b82818337600083830152505050565b6000610db6610db184610d63565b610d48565b905082815260208101848484011115610dd257610dd1610ce3565b5b610ddd848285610d94565b509392505050565b600082601f830112610dfa57610df9610a20565b5b8135610e0a848260208601610da3565b91505092915050565b600060208284031215610e2957610e28610a16565b5b600082013567ffffffffffffffff811115610e4757610e46610a1b565b5b610e5384828501610de5565b91505092915050565b600082825260208201905092915050565b7f4f6e6c79206f776e657220697320616c6c6f77656420746f2063616c6c20746860008201527f69732066756e6374696f6e210000000000000000000000000000000000000000602082015250565b6000610ec9602c83610e5c565b9150610ed482610e6d565b604082019050919050565b60006020820190508181036000830152610ef881610ebc565b9050919050565b7f4e487b7100000000000000000000000000000000000000000000000000000000600052602260045260246000fd5b60006002820490506001821680610f4657607f821691505b602082108103610f5957610f58610eff565b5b50919050565b60008190508160005260206000209050919050565b60006020601f8301049050919050565b600082821b905092915050565b600060088302610fc17fffffffffffffffffffffffffffffffffffffffffffffffffffffffffffffffff82610f84565b610fcb8683610f84565b95508019841693508086168417925050509392505050565b6000819050919050565b6000611008611003610ffe84610b06565b610fe3565b610b06565b9050919050565b6000819050919050565b61102283610fed565b61103661102e8261100f565b848454610f91565b825550505050565b600090565b61104b61103e565b611056818484611019565b505050565b5b8181101561107a5761106f600082611043565b60018101905061105c565b5050565b601f8211156110bf5761109081610f5f565b61109984610f74565b810160208510156110a8578190505b6110bc6110b485610f74565b83018261105b565b50505b505050565b600082821c905092915050565b60006110e2600019846008026110c4565b1980831691505092915050565b60006110fb83836110d1565b9150826002028217905092915050565b6111148261095a565b67ffffffffffffffff81111561112d5761112c610ce8565b5b6111378254610f2e565b61114282828561107e565b600060209050601f8311600181146111755760008415611163578287015190505b61116d85826110ef565b8655506111d5565b601f19841661118386610f5f565b60005b828110156111ab57848901518255600182019150602085019450602081019050611186565b868310156111c857848901516111c4601f8916826110d1565b8355505b6001600288020188555050505b505050505050565b7f4e6f206d61696c20617420696e64657800000000000000000000000000000000600082015250565b6000611213601083610e5c565b915061121e826111dd565b602082019050919050565b6000602082019050818103600083015261124281611206565b9050919050565b7f4e487b7100000000000000000000000000000000000000000000000000000000600052603260045260246000fdfea2646970667358221220212dc1f8ac019f1d27dcd6761629a97c9fc3f1cf0d7b49d805cb1eef59b4070464736f6c63430008140033",
  "linkReferences": {},
  "deployedLinkReferences": {}
}